S01A0000456E7472656761626C65312D436F6469676F2E737265635E
S11300000C9434000C9446000C9446000C94460066
S11300100C9446000C9446000C9446000C94460044
S11300200C9446000C9446000C9446000C94460034
S11300300C9446000C9446000C9446000C94460024
S11300400C9446000C9446000C9446000C94460014
S11300500C9446000C9446000C9446000C94460004
S11300600C9446000C94460011241FBECFEFD8E038
S1130070DEBFCDBF21E0A0E0B1E001C01D92A630FB
S1130080B207E1F70E94A7000C9407010C9400004A
S113009080E090E0803A2FE0920710F40196FACFC6
S11300A08091020190910301A0910401B091050196
S11300B00196A11DB11D8093020190930301A093A9
S11300C00401B09305010895811114C081E090E00A
S11300D00090010102C0880F991F0A94E2F78BB9BE
S11300E0809101018F5F8093010188307CF110922F
S11300F00101089581E090E00090010102C0880FA1
S1130100991F0A94E2F78BB99091000191110FC0E5
S1130110809101018150809301018823BCF481E026
S113012080930101911180E08093000108958091F2
S113013001018F5F80930101883044F086E0809351
S1130140010181E0911180E080930001089587B15D
S11301508C7F87B984B1816084B98FEF8AB988B103
S1130160836088B9C0E0309914C0CC2339F0109270
S1130170010181E0C11180E0C82F09C087E08093AC
S113018001011092000181E0C11180E0C82F309B71
S1130190FECF319902C0319BFECF60910201709174
S11301A00301809104019091050124E630E040E0D0
S11301B050E00E94E500672B682B692B19F48C2F03
S11301C00E9464000E944800CECFA1E21A2EAA1B0E
S11301D0BB1BFD010DC0AA1FBB1FEE1FFF1FA217F3
S11301E0B307E407F50720F0A21BB30BE40BF50BF0
S11301F0661F771F881F991F1A9469F76095709579
S1130200809590959B01AC01BD01CF010895F894B0
S1050210FFCF1A
S9030000FC
