:100000000C9434000C9446000C9446000C9446006A
:100010000C9446000C9446000C9446000C94460048
:100020000C9446000C9446000C9446000C94460038
:100030000C9446000C9446000C9446000C94460028
:100040000C9446000C9446000C9446000C94460018
:100050000C9446000C9446000C9446000C94460008
:100060000C9446000C94460011241FBECFEFD8E03C
:10007000DEBFCDBF21E0A0E0B1E001C01D92A830FD
:10008000B207E1F70E94A7010C9425020C9400002E
:1000900020E030E0203131058CF485B1816085B9F4
:1000A0000000000085B18E7F85B9000000000000CF
:1000B0000000000000002F5F3F4FECCF20E030E059
:1000C00028303105A4F485B1816085B900000000B5
:1000D00000000000000000000000000085B18E7FDD
:1000E00085B90000000000002F5F3F4FE9CF089561
:1000F00020E030E028303105A4F485B1816085B975
:1001000000000000000000000000000000000000EF
:1001100085B18E7F85B90000000000002F5F3F4F42
:10012000E9CF20E030E0203131058CF485B18160E9
:1001300085B90000000085B18E7F85B90000000000
:1001400000000000000000002F5F3F4FECCF08953B
:1001500020E030E0283031058CF485B1816085B92C
:100160000000000085B18E7F85B90000000000000E
:100170000000000000002F5F3F4FECCF20E030E098
:1001800028303105A4F485B1816085B900000000F4
:1001900000000000000000000000000085B18E7F1C
:1001A00085B90000000000002F5F3F4FE9CF20E03D
:1001B00030E0283031058CF485B1816085B90000CC
:1001C000000085B18E7F85B90000000000000000AE
:1001D000000000002F5F3F4FECCF089520E030E09B
:1001E000283131058CF485B1816085B900000000AB
:1001F00085B18E7F85B9000000000000000000007E
:1002000000002F5F3F4FECCF0895811114C081E0B3
:1002100090E00090030102C0880F991F0A94E2F752
:100220008BB9809103018F5F8093030188307CF14B
:1002300010920301089581E090E00090030102C054
:10024000880F991F0A94E2F78BB9909102019111DE
:100250000FC0809103018150809303018823BCF477
:1002600081E080930301911180E080930201089561
:10027000809103018F5F80930301883044F086E012
:100280008093030181E0911180E080930201089541
:10029000CF9381111EC080910001882349F0C0E0F6
:1002A000C43078F40E94EE000E94A800CF5FF8CF1F
:1002B000C0E0C43030F40E9448000E94EE00CF5FDE
:1002C000F8CF81E090910001911180E080930001CE
:1002D00022C0C0E0C83090F48091010190E00C2E63
:1002E00002C0959587950A94E2F780FF03C00E94AB
:1002F000780002C00E94EE00CF5FECCF8091010138
:10030000813021F480E88093010105C090E095954B
:10031000879580930101CF9108958FE99FE0019720
:10032000F1F700C000008091040190910501A091B7
:100330000601B09107010196A11DB11D8093040132
:1003400090930501A0930601B0930701089587B12A
:100350008C7F87B984B1816084B98FEF8AB988B105
:10036000836088B9D0E0C0E0309910C0CC2319F088
:100370001092030105C087E08093030110920201EF
:1003800081E0C11180E0C82F309BFECF31990EC0B3
:10039000DD2319F01092000103C080E88093010171
:1003A00081E0D11180E0D82F319BFECF6091040114
:1003B00070910501809106019091070124E630E0DB
:1003C00040E050E00E940302672B682B692B19F470
:1003D0008C2F0E94050160910401709105018091AC
:1003E00006019091070126E930E040E050E00E94CC
:1003F0000302672B682B692B19F48D2F0E9448018B
:100400000E948D01B1CFA1E21A2EAA1BBB1BFD01D8
:100410000DC0AA1FBB1FEE1FFF1FA217B307E407E3
:10042000F50720F0A21BB30BE40BF50B661F771F3B
:10043000881F991F1A9469F760957095809590951B
:0E0440009B01AC01BD01CF010895F894FFCFE0
:00000001FF
